000120110824230314TRUST               TSIA                                522T52M125201108242303145274120110825010300L068092024051100000020101211000000CO2T52M000005274120110825010300AN2121910000   
000320110825010359TRUST               SMART                               522T52M12520110825010300527412011082501030020110825010300     00000000000000DDA  DS 31522T52M125219100002121000 52739003 Y   52741Y
000320110825010617TRUST               SMART                               522T52M12520110825010600527390000000000000020110825010600     00000000000000AAA      0522T52M125219100002121000 52736001 Y   52739Y
000320110825010641TRUST               SMART                               522T52M12520110825010600527390000000000000020110825010600     00000000000000DDA  DS  1522T52M125219100002121000 52736004 Y   52739Y
000320110825010925TRUST               SMART                               522T52M12520110825011000527362011082501100020110825011000     00000000000000AAA  D  40522T52M125219100002121000 52735001 Y   52736Y
000320110825011100TRUST               SMART                               522T52M12520110825011000527362011082501100020110825011030     00000000000000DDA  D   1522T52M125219100002121000 52735003 Y   52736Y
000320110825011302TRUST               SMART                               522T52M12520110825011300527352011082501130020110825011300     00000000000000AAA  D   0522T52M125219100002121000 51938001     00000Y
000320110825011419TRUST               SMART                               522T52M12520110825011400527352011082501130020110825011330     00000000000000DDA  D   1522T52M125219100002121001L51938001     00000Y
000320110825011656TRUST               SMART                               522T52M12520110825011700527342011082501170020110825011630     00000000000000AAA  D   0522T52M125219100002121001L52733001     00000Y
000320110825011845TRUST               SMART                               522T52M12520110825011900527332011082501190020110825011830     00000000000000AAA  D   0522T52M125219100002121001L52729001 Y   52733Y
000320110825012018TRUST               SMART                               522T52M12520110825012000527332011082501190020110825011900     00000000000000DDA  D   2522T52M125219100002121001L52729001 Y   52733Y
000320110825012153TRUST               SMART                               522T52M12520110825012200527292011082501210020110825012030     00000000000000AAA  D   0522T52M125219100002121002L52732001     00000Y
000320110825012317TRUST               SMART                               522T52M12520110825012200527292011082501210020110825012100     00000000000000DDA  D   1522T52M125219100002121001L52732002     00000Y
000320110825012513TRUST               SMART                               522T52M12520110825012500527322011082501240020110825012330     00000000000000AAA  D   0522T52M125219100002121002L52731001     00000Y
000320110825012703TRUST               SMART                               522T52M12520110825012600527322011082501240020110825012400     00000000000000DDA  D   1522T52M125219100002121002L52731005     00000Y
000320110825013326TRUST               SMART                               522T52M12520110825013300527312011082501290020110825012900     00000000000000TAA  D   0522T52M125219100002121004L     000YY   52731Y
